{
  "_format": "hh-sol-artifact-1",
  "contractName": "MyEpicNFTList",
  "sourceName": "contracts/MyEpicNFTList.sol",
  "abi": [
    {
      "inputs": [],
      "stateMutability": "nonpayable",
      "type": "constructor"
    },
    {
      "anonymous": false,
      "inputs": [
        {
          "indexed": true,
          "internalType": "address",
          "name": "owner",
          "type": "address"
        },
        {
          "indexed": true,
          "internalType": "address",
          "name": "approved",
          "type": "address"
        },
        {
          "indexed": true,
          "internalType": "uint256",
          "name": "tokenId",
          "type": "uint256"
        }
      ],
      "name": "Approval",
      "type": "event"
    },
    {
      "anonymous": false,
      "inputs": [
        {
          "indexed": true,
          "internalType": "address",
          "name": "owner",
          "type": "address"
        },
        {
          "indexed": true,
          "internalType": "address",
          "name": "operator",
          "type": "address"
        },
        {
          "indexed": false,
          "internalType": "bool",
          "name": "approved",
          "type": "bool"
        }
      ],
      "name": "ApprovalForAll",
      "type": "event"
    },
    {
      "anonymous": false,
      "inputs": [
        {
          "indexed": true,
          "internalType": "address",
          "name": "from",
          "type": "address"
        },
        {
          "indexed": true,
          "internalType": "address",
          "name": "to",
          "type": "address"
        },
        {
          "indexed": true,
          "internalType": "uint256",
          "name": "tokenId",
          "type": "uint256"
        }
      ],
      "name": "Transfer",
      "type": "event"
    },
    {
      "inputs": [
        {
          "internalType": "address",
          "name": "to",
          "type": "address"
        },
        {
          "internalType": "uint256",
          "name": "tokenId",
          "type": "uint256"
        }
      ],
      "name": "approve",
      "outputs": [],
      "stateMutability": "nonpayable",
      "type": "function"
    },
    {
      "inputs": [
        {
          "internalType": "address",
          "name": "owner",
          "type": "address"
        }
      ],
      "name": "balanceOf",
      "outputs": [
        {
          "internalType": "uint256",
          "name": "",
          "type": "uint256"
        }
      ],
      "stateMutability": "view",
      "type": "function"
    },
    {
      "inputs": [
        {
          "internalType": "uint256",
          "name": "tokenId",
          "type": "uint256"
        }
      ],
      "name": "getApproved",
      "outputs": [
        {
          "internalType": "address",
          "name": "",
          "type": "address"
        }
      ],
      "stateMutability": "view",
      "type": "function"
    },
    {
      "inputs": [
        {
          "internalType": "address",
          "name": "owner",
          "type": "address"
        },
        {
          "internalType": "address",
          "name": "operator",
          "type": "address"
        }
      ],
      "name": "isApprovedForAll",
      "outputs": [
        {
          "internalType": "bool",
          "name": "",
          "type": "bool"
        }
      ],
      "stateMutability": "view",
      "type": "function"
    },
    {
      "inputs": [],
      "name": "makeAnEpicNFTList",
      "outputs": [],
      "stateMutability": "nonpayable",
      "type": "function"
    },
    {
      "inputs": [],
      "name": "name",
      "outputs": [
        {
          "internalType": "string",
          "name": "",
          "type": "string"
        }
      ],
      "stateMutability": "view",
      "type": "function"
    },
    {
      "inputs": [
        {
          "internalType": "uint256",
          "name": "tokenId",
          "type": "uint256"
        }
      ],
      "name": "ownerOf",
      "outputs": [
        {
          "internalType": "address",
          "name": "",
          "type": "address"
        }
      ],
      "stateMutability": "view",
      "type": "function"
    },
    {
      "inputs": [
        {
          "internalType": "uint256",
          "name": "tokenId",
          "type": "uint256"
        }
      ],
      "name": "pickRandomFirstWord",
      "outputs": [
        {
          "internalType": "string",
          "name": "",
          "type": "string"
        }
      ],
      "stateMutability": "view",
      "type": "function"
    },
    {
      "inputs": [
        {
          "internalType": "uint256",
          "name": "tokenId",
          "type": "uint256"
        }
      ],
      "name": "pickRandomSecondWord",
      "outputs": [
        {
          "internalType": "string",
          "name": "",
          "type": "string"
        }
      ],
      "stateMutability": "view",
      "type": "function"
    },
    {
      "inputs": [
        {
          "internalType": "uint256",
          "name": "tokenId",
          "type": "uint256"
        }
      ],
      "name": "pickRandomThirdWord",
      "outputs": [
        {
          "internalType": "string",
          "name": "",
          "type": "string"
        }
      ],
      "stateMutability": "view",
      "type": "function"
    },
    {
      "inputs": [
        {
          "internalType": "address",
          "name": "from",
          "type": "address"
        },
        {
          "internalType": "address",
          "name": "to",
          "type": "address"
        },
        {
          "internalType": "uint256",
          "name": "tokenId",
          "type": "uint256"
        }
      ],
      "name": "safeTransferFrom",
      "outputs": [],
      "stateMutability": "nonpayable",
      "type": "function"
    },
    {
      "inputs": [
        {
          "internalType": "address",
          "name": "from",
          "type": "address"
        },
        {
          "internalType": "address",
          "name": "to",
          "type": "address"
        },
        {
          "internalType": "uint256",
          "name": "tokenId",
          "type": "uint256"
        },
        {
          "internalType": "bytes",
          "name": "data",
          "type": "bytes"
        }
      ],
      "name": "safeTransferFrom",
      "outputs": [],
      "stateMutability": "nonpayable",
      "type": "function"
    },
    {
      "inputs": [
        {
          "internalType": "address",
          "name": "operator",
          "type": "address"
        },
        {
          "internalType": "bool",
          "name": "approved",
          "type": "bool"
        }
      ],
      "name": "setApprovalForAll",
      "outputs": [],
      "stateMutability": "nonpayable",
      "type": "function"
    },
    {
      "inputs": [
        {
          "internalType": "bytes4",
          "name": "interfaceId",
          "type": "bytes4"
        }
      ],
      "name": "supportsInterface",
      "outputs": [
        {
          "internalType": "bool",
          "name": "",
          "type": "bool"
        }
      ],
      "stateMutability": "view",
      "type": "function"
    },
    {
      "inputs": [],
      "name": "symbol",
      "outputs": [
        {
          "internalType": "string",
          "name": "",
          "type": "string"
        }
      ],
      "stateMutability": "view",
      "type": "function"
    },
    {
      "inputs": [
        {
          "internalType": "uint256",
          "name": "tokenId",
          "type": "uint256"
        }
      ],
      "name": "tokenURI",
      "outputs": [
        {
          "internalType": "string",
          "name": "",
          "type": "string"
        }
      ],
      "stateMutability": "view",
      "type": "function"
    },
    {
      "inputs": [
        {
          "internalType": "address",
          "name": "from",
          "type": "address"
        },
        {
          "internalType": "address",
          "name": "to",
          "type": "address"
        },
        {
          "internalType": "uint256",
          "name": "tokenId",
          "type": "uint256"
        }
      ],
      "name": "transferFrom",
      "outputs": [],
      "stateMutability": "nonpayable",
      "type": "function"
    }
  ],
  "bytecode": "0x608060405260405180610160016040528061012f81526020016200451861012f913960089081620000319190620009d0565b506040518060c001604052806040518060400160405280600581526020017f526f626f7400000000000000000000000000000000000000000000000000000081525081526020016040518060400160405280600a81526020017f466f756e646174696f6e0000000000000000000000000000000000000000000081525081526020016040518060400160405280600681526020017f456d70697265000000000000000000000000000000000000000000000000000081525081526020016040518060400160405280600881526020017f47616c616374696300000000000000000000000000000000000000000000000081525081526020016040518060400160405280600d81526020017f50737963686f686973746f72790000000000000000000000000000000000000081525081526020016040518060400160405280600a81526020017f5a65726f7468204c6177000000000000000000000000000000000000000000008152508152506009906006620001af92919062000669565b506040518060c001604052806040518060400160405280600681526020017f446f72736169000000000000000000000000000000000000000000000000000081525081526020016040518060400160405280600881526020017f457465726e616c7300000000000000000000000000000000000000000000000081525081526020016040518060400160405280600b81526020017f4b6e6f776e20537061636500000000000000000000000000000000000000000081525081526020016040518060400160405280600481526020017f4d756c650000000000000000000000000000000000000000000000000000000081525081526020016040518060400160405280600a81526020017f526f626f7420436974790000000000000000000000000000000000000000000081525081526020016040518060400160405280600781526020017f536b796c61726b00000000000000000000000000000000000000000000000000815250815250600a9060066200032d92919062000669565b506040518060c001604052806040518060400160405280600581526020017f427261696e00000000000000000000000000000000000000000000000000000081525081526020016040518060400160405280600e81526020017f4361766573206f6620537465656c00000000000000000000000000000000000081525081526020016040518060400160405280600c81526020017f456c696a61682042616c6579000000000000000000000000000000000000000081525081526020016040518060400160405280600a81526020017f4c696a652042616c65790000000000000000000000000000000000000000000081525081526020016040518060400160405280601081526020017f522e2044616e65656c204f6c697661770000000000000000000000000000000081525081526020016040518060400160405280600681526020017f5370616365720000000000000000000000000000000000000000000000000000815250815250600b906006620004ab92919062000669565b50348015620004b957600080fd5b506040518060400160405280600981526020017f5371756172654e465400000000000000000000000000000000000000000000008152506040518060400160405280600681526020017f53515541524500000000000000000000000000000000000000000000000000008152508160009081620005379190620009d0565b508060019081620005499190620009d0565b505050620005976040518060400160405280601e81526020017f54686973206973206d79204e465420636f6e74726163742e20576f61682100008152506200059d60201b62000f661760201c565b62000b6a565b6200063d81604051602401620005b4919062000b46565b6040516020818303038152906040527f41304fac000000000000000000000000000000000000000000000000000000007bffffffffffffffffffffffffffffffffffffffffffffffffffffffff19166020820180517bffffffffffffffffffffffffffffffffffffffffffffffffffffffff83818316178352505050506200064060201b60201c565b50565b60008151905060006a636f6e736f6c652e6c6f679050602083016000808483855afa5050505050565b828054828255906000526020600020908101928215620006b6579160200282015b82811115620006b5578251829081620006a49190620009d0565b50916020019190600101906200068a565b5b509050620006c59190620006c9565b5090565b5b80821115620006ed5760008181620006e39190620006f1565b50600101620006ca565b5090565b508054620006ff90620007bf565b6000825580601f1062000713575062000734565b601f01602090049060005260206000209081019062000733919062000737565b5b50565b5b808211156200075257600081600090555060010162000738565b5090565b600081519050919050565b7f4e487b7100000000000000000000000000000000000000000000000000000000600052604160045260246000fd5b7f4e487b7100000000000000000000000000000000000000000000000000000000600052602260045260246000fd5b60006002820490506001821680620007d857607f821691505b602082108103620007ee57620007ed62000790565b5b50919050565b60008190508160005260206000209050919050565b60006020601f8301049050919050565b600082821b905092915050565b600060088302620008587fffffffffffffffffffffffffffffffffffffffffffffffffffffffffffffffff8262000819565b62000864868362000819565b95508019841693508086168417925050509392505050565b6000819050919050565b6000819050919050565b6000620008b1620008ab620008a5846200087c565b62000886565b6200087c565b9050919050565b6000819050919050565b620008cd8362000890565b620008e5620008dc82620008b8565b84845462000826565b825550505050565b600090565b620008fc620008ed565b62000909818484620008c2565b505050565b5b81811015620009315762000925600082620008f2565b6001810190506200090f565b5050565b601f82111562000980576200094a81620007f4565b620009558462000809565b8101602085101562000965578190505b6200097d620009748562000809565b8301826200090e565b50505b505050565b600082821c905092915050565b6000620009a56000198460080262000985565b1980831691505092915050565b6000620009c0838362000992565b9150826002028217905092915050565b620009db8262000756565b67ffffffffffffffff811115620009f757620009f662000761565b5b62000a038254620007bf565b62000a1082828562000935565b600060209050601f83116001811462000a48576000841562000a33578287015190505b62000a3f8582620009b2565b86555062000aaf565b601f19841662000a5886620007f4565b60005b8281101562000a825784890151825560018201915060208501945060208101905062000a5b565b8683101562000aa2578489015162000a9e601f89168262000992565b8355505b6001600288020188555050505b505050505050565b600082825260208201905092915050565b60005b8381101562000ae857808201518184015260208101905062000acb565b60008484015250505050565b6000601f19601f8301169050919050565b600062000b128262000756565b62000b1e818562000ab7565b935062000b3081856020860162000ac8565b62000b3b8162000af4565b840191505092915050565b6000602082019050818103600083015262000b62818462000b05565b905092915050565b61399e8062000b7a6000396000f3fe608060405234801561001057600080fd5b506004361061010b5760003560e01c80636352211e116100a2578063b187301f11610071578063b187301f146102b6578063b88d4fde146102e6578063c575757a14610302578063c87b56dd14610332578063e985e9c5146103625761010b565b80636352211e1461021c57806370a082311461024c57806395d89b411461027c578063a22cb4651461029a5761010b565b806323b872dd116100de57806323b872dd146101aa578063277ef67b146101c65780632de38d68146101d057806342842e0e146102005761010b565b806301ffc9a71461011057806306fdde0314610140578063081812fc1461015e578063095ea7b31461018e575b600080fd5b61012a600480360381019061012591906122e4565b610392565b604051610137919061232c565b60405180910390f35b610148610474565b60405161015591906123d7565b60405180910390f35b6101786004803603810190610173919061242f565b610506565b604051610185919061249d565b60405180910390f35b6101a860048036038101906101a391906124e4565b61054c565b005b6101c460048036038101906101bf9190612524565b610663565b005b6101ce6106c3565b005b6101ea60048036038101906101e5919061242f565b610871565b6040516101f791906123d7565b60405180910390f35b61021a60048036038101906102159190612524565b610969565b005b6102366004803603810190610231919061242f565b610989565b604051610243919061249d565b60405180910390f35b61026660048036038101906102619190612577565b610a0f565b60405161027391906125b3565b60405180910390f35b610284610ac6565b60405161029191906123d7565b60405180910390f35b6102b460048036038101906102af91906125fa565b610b58565b005b6102d060048036038101906102cb919061242f565b610b6e565b6040516102dd91906123d7565b60405180910390f35b61030060048036038101906102fb919061276f565b610c66565b005b61031c6004803603810190610317919061242f565b610cc8565b60405161032991906123d7565b60405180910390f35b61034c6004803603810190610347919061242f565b610dc0565b60405161035991906123d7565b60405180910390f35b61037c600480360381019061037791906127f2565b610ed2565b604051610389919061232c565b60405180910390f35b60007f80ac58cd000000000000000000000000000000000000000000000000000000007bffffffffffffffffffffffffffffffffffffffffffffffffffffffff1916827bffffffffffffffffffffffffffffffffffffffffffffffffffffffff1916148061045d57507f5b5e139f000000000000000000000000000000000000000000000000000000007bffffffffffffffffffffffffffffffffffffffffffffffffffffffff1916827bffffffffffffffffffffffffffffffffffffffffffffffffffffffff1916145b8061046d575061046c82610fff565b5b9050919050565b60606000805461048390612861565b80601f01602080910402602001604051908101604052809291908181526020018280546104af90612861565b80156104fc5780601f106104d1576101008083540402835291602001916104fc565b820191906000526020600020905b8154815290600101906020018083116104df57829003601f168201915b5050505050905090565b600061051182611069565b6004600083815260200190815260200160002060009054906101000a900473ffffffffffffffffffffffffffffffffffffffff169050919050565b600061055782610989565b90508073ffffffffffffffffffffffffffffffffffffffff168373ffffffffffffffffffffffffffffffffffffffff16036105c7576040517f08c379a00000000000000000000000000000000000000000000000000000000081526004016105be90612904565b60405180910390fd5b8073ffffffffffffffffffffffffffffffffffffffff166105e66110b4565b73ffffffffffffffffffffffffffffffffffffffff16148061061557506106148161060f6110b4565b610ed2565b5b610654576040517f08c379a000000000000000000000000000000000000000000000000000000000815260040161064b90612996565b60405180910390fd5b61065e83836110bc565b505050565b61067461066e6110b4565b82611175565b6106b3576040517f08c379a00000000000000000000000000000000000000000000000000000000081526004016106aa90612a28565b60405180910390fd5b6106be83838361120a565b505050565b60006106cf6007611503565b905060006106dc82610871565b905060006106e983610b6e565b905060006106f684610cc8565b9050600083838360405160200161070f93929190612a84565b60405160208183030381529060405290506000600882604051602001610736929190612b99565b6040516020818303038152906040529050600061077b8361075684611511565b604051602001610767929190612d1e565b604051602081830303815290604052611511565b90506000816040516020016107909190612daf565b60405160208183030381529060405290506107df6040518060400160405280601581526020017f0a2d2d2d2d2d2d2d2d2d2d2d2d2d2d2d2d2d2d2d2d0000000000000000000000815250610f66565b6107e881610f66565b6108266040518060400160405280601581526020017f2d2d2d2d2d2d2d2d2d2d2d2d2d2d2d2d2d2d2d2d0a0000000000000000000000815250610f66565b61083033896116a8565b61083a88826116c6565b6108446007611733565b610867604051806060016040528060258152602001613904602591398933611749565b5050505050505050565b606060006108a5610881846117e8565b6040516020016108919190612e1d565b6040516020818303038152906040526118b6565b9050600980549050816108b89190612e6e565b9050600981815481106108ce576108cd612e9f565b5b9060005260206000200180546108e390612861565b80601f016020809104026020016040519081016040528092919081815260200182805461090f90612861565b801561095c5780601f106109315761010080835404028352916020019161095c565b820191906000526020600020905b81548152906001019060200180831161093f57829003601f168201915b5050505050915050919050565b61098483838360405180602001604052806000815250610c66565b505050565b600080610995836118e9565b9050600073ffffffffffffffffffffffffffffffffffffffff168173ffffffffffffffffffffffffffffffffffffffff1603610a06576040517f08c379a00000000000000000000000000000000000000000000000000000000081526004016109fd90612f1a565b60405180910390fd5b80915050919050565b60008073ffffffffffffffffffffffffffffffffffffffff168273ffffffffffffffffffffffffffffffffffffffff1603610a7f576040517f08c379a0000000000000000000000000000000000000000000000000000000008152600401610a7690612fac565b60405180910390fd5b600360008373ffffffffffffffffffffffffffffffffffffffff1673ffffffffffffffffffffffffffffffffffffffff168152602001908152602001600020549050919050565b606060018054610ad590612861565b80601f0160208091040260200160405190810160405280929190818152602001828054610b0190612861565b8015610b4e5780601f10610b2357610100808354040283529160200191610b4e565b820191906000526020600020905b815481529060010190602001808311610b3157829003601f168201915b5050505050905090565b610b6a610b636110b4565b8383611926565b5050565b60606000610ba2610b7e846117e8565b604051602001610b8e9190613018565b6040516020818303038152906040526118b6565b9050600a8054905081610bb59190612e6e565b9050600a8181548110610bcb57610bca612e9f565b5b906000526020600020018054610be090612861565b80601f0160208091040260200160405190810160405280929190818152602001828054610c0c90612861565b8015610c595780601f10610c2e57610100808354040283529160200191610c59565b820191906000526020600020905b815481529060010190602001808311610c3c57829003601f168201915b5050505050915050919050565b610c77610c716110b4565b83611175565b610cb6576040517f08c379a0000000000000000000000000000000000000000000000000000000008152600401610cad90612a28565b60405180910390fd5b610cc284848484611a92565b50505050565b60606000610cfc610cd8846117e8565b604051602001610ce89190613086565b6040516020818303038152906040526118b6565b9050600b8054905081610d0f9190612e6e565b9050600b8181548110610d2557610d24612e9f565b5b906000526020600020018054610d3a90612861565b80601f0160208091040260200160405190810160405280929190818152602001828054610d6690612861565b8015610db35780601f10610d8857610100808354040283529160200191610db3565b820191906000526020600020905b815481529060010190602001808311610d9657829003601f168201915b5050505050915050919050565b6060610dcb82611069565b6000600660008481526020019081526020016000208054610deb90612861565b80601f0160208091040260200160405190810160405280929190818152602001828054610e1790612861565b8015610e645780601f10610e3957610100808354040283529160200191610e64565b820191906000526020600020905b815481529060010190602001808311610e4757829003601f168201915b505050505090506000610e75611aee565b90506000815103610e8a578192505050610ecd565b600082511115610ebf578082604051602001610ea79291906130a8565b60405160208183030381529060405292505050610ecd565b610ec884611b05565b925050505b919050565b6000600560008473ffffffffffffffffffffffffffffffffffffffff1673ffffffffffffffffffffffffffffffffffffffff16815260200190815260200160002060008373ffffffffffffffffffffffffffffffffffffffff1673ffffffffffffffffffffffffffffffffffffffff16815260200190815260200160002060009054906101000a900460ff16905092915050565b610ffc81604051602401610f7a91906123d7565b6040516020818303038152906040527f41304fac000000000000000000000000000000000000000000000000000000007bffffffffffffffffffffffffffffffffffffffffffffffffffffffff19166020820180517bffffffffffffffffffffffffffffffffffffffffffffffffffffffff8381831617835250505050611b6d565b50565b60007f01ffc9a7000000000000000000000000000000000000000000000000000000007bffffffffffffffffffffffffffffffffffffffffffffffffffffffff1916827bffffffffffffffffffffffffffffffffffffffffffffffffffffffff1916149050919050565b61107281611b96565b6110b1576040517f08c379a00000000000000000000000000000000000000000000000000000000081526004016110a890612f1a565b60405180910390fd5b50565b600033905090565b816004600083815260200190815260200160002060006101000a81548173ffffffffffffffffffffffffffffffffffffffff021916908373ffffffffffffffffffffffffffffffffffffffff160217905550808273ffffffffffffffffffffffffffffffffffffffff1661112f83610989565b73ffffffffffffffffffffffffffffffffffffffff167f8c5be1e5ebec7d5bd14f71427d1e84f3dd0314c0f7b2291e5b200ac8c7c3b92560405160405180910390a45050565b60008061118183610989565b90508073ffffffffffffffffffffffffffffffffffffffff168473ffffffffffffffffffffffffffffffffffffffff1614806111c357506111c28185610ed2565b5b8061120157508373ffffffffffffffffffffffffffffffffffffffff166111e984610506565b73ffffffffffffffffffffffffffffffffffffffff16145b91505092915050565b8273ffffffffffffffffffffffffffffffffffffffff1661122a82610989565b73ffffffffffffffffffffffffffffffffffffffff1614611280576040517f08c379a00000000000000000000000000000000000000000000000000000000081526004016112779061313e565b60405180910390fd5b600073ffffffffffffffffffffffffffffffffffffffff168273ffffffffffffffffffffffffffffffffffffffff16036112ef576040517f08c379a00000000000000000000000000000000000000000000000000000000081526004016112e6906131d0565b60405180910390fd5b6112fc8383836001611bd7565b8273ffffffffffffffffffffffffffffffffffffffff1661131c82610989565b73ffffffffffffffffffffffffffffffffffffffff1614611372576040517f08c379a00000000000000000000000000000000000000000000000000000000081526004016113699061313e565b60405180910390fd5b6004600082815260200190815260200160002060006101000a81549073ffffffffffffffffffffffffffffffffffffffff02191690556001600360008573ffffffffffffffffffffffffffffffffffffffff1673ffffffffffffffffffffffffffffffffffffffff168152602001908152602001600020600082825403925050819055506001600360008473ffffffffffffffffffffffffffffffffffffffff1673ffffffffffffffffffffffffffffffffffffffff16815260200190815260200160002060008282540192505081905550816002600083815260200190815260200160002060006101000a81548173ffffffffffffffffffffffffffffffffffffffff021916908373ffffffffffffffffffffffffffffffffffffffff160217905550808273ffffffffffffffffffffffffffffffffffffffff168473ffffffffffffffffffffffffffffffffffffffff167fddf252ad1be2c89b69c2b068fc378daa952ba7f163c4a11628f55a4df523b3ef60405160405180910390a46114fe8383836001611cfd565b505050565b600081600001549050919050565b60606000825190506000810361153957604051806020016040528060008152509150506116a3565b6000600360028361154a919061321f565b6115549190613253565b60046115609190613284565b90506000602082611571919061321f565b67ffffffffffffffff81111561158a57611589612644565b5b6040519080825280601f01601f1916602001820160405280156115bc5781602001600182028036833780820191505090505b5090506000604051806060016040528060408152602001613929604091399050600181016020830160005b868110156116605760038101905062ffffff818a015116603f8160121c168401518060081b905060ff603f83600c1c1686015116810190508060081b905060ff603f8360061c1686015116810190508060081b905060ff603f831686015116810190508060e01b905080845260048401935050506115e7565b50600386066001811461167a576002811461168a57611695565b613d3d60f01b6002830352611695565b603d60f81b60018303525b508484525050819450505050505b919050565b6116c2828260405180602001604052806000815250611d03565b5050565b6116cf82611b96565b61170e576040517f08c379a000000000000000000000000000000000000000000000000000000000815260040161170590613338565b60405180910390fd5b8060066000848152602001908152602001600020908161172e91906134ef565b505050565b6001816000016000828254019250508190555050565b6117e3838383604051602401611761939291906135c1565b6040516020818303038152906040527f1c7ec448000000000000000000000000000000000000000000000000000000007bffffffffffffffffffffffffffffffffffffffffffffffffffffffff19166020820180517bffffffffffffffffffffffffffffffffffffffffffffffffffffffff8381831617835250505050611b6d565b505050565b6060600060016117f784611d5e565b01905060008167ffffffffffffffff81111561181657611815612644565b5b6040519080825280601f01601f1916602001820160405280156118485781602001600182028036833780820191505090505b509050600082602001820190505b6001156118ab578080600190039150507f3031323334353637383961626364656600000000000000000000000000000000600a86061a8153600a858161189f5761189e612e3f565b5b04945060008503611856575b819350505050919050565b6000816040516020016118c991906135ff565b6040516020818303038152906040528051906020012060001c9050919050565b60006002600083815260200190815260200160002060009054906101000a900473ffffffffffffffffffffffffffffffffffffffff169050919050565b8173ffffffffffffffffffffffffffffffffffffffff168373ffffffffffffffffffffffffffffffffffffffff1603611994576040517f08c379a000000000000000000000000000000000000000000000000000000000815260040161198b90613662565b60405180910390fd5b80600560008573ffffffffffffffffffffffffffffffffffffffff1673ffffffffffffffffffffffffffffffffffffffff16815260200190815260200160002060008473ffffffffffffffffffffffffffffffffffffffff1673ffffffffffffffffffffffffffffffffffffffff16815260200190815260200160002060006101000a81548160ff0219169083151502179055508173ffffffffffffffffffffffffffffffffffffffff168373ffffffffffffffffffffffffffffffffffffffff167f17307eab39ab6107e8899845ad3d59bd9653f200f220920489ca2b5937696c3183604051611a85919061232c565b60405180910390a3505050565b611a9d84848461120a565b611aa984848484611eb1565b611ae8576040517f08c379a0000000000000000000000000000000000000000000000000000000008152600401611adf906136f4565b60405180910390fd5b50505050565b606060405180602001604052806000815250905090565b6060611b1082611069565b6000611b1a611aee565b90506000815111611b3a5760405180602001604052806000815250611b65565b80611b44846117e8565b604051602001611b559291906130a8565b6040516020818303038152906040525b915050919050565b60008151905060006a636f6e736f6c652e6c6f679050602083016000808483855afa5050505050565b60008073ffffffffffffffffffffffffffffffffffffffff16611bb8836118e9565b73ffffffffffffffffffffffffffffffffffffffff1614159050919050565b6001811115611cf757600073ffffffffffffffffffffffffffffffffffffffff168473ffffffffffffffffffffffffffffffffffffffff1614611c6b5780600360008673ffffffffffffffffffffffffffffffffffffffff1673ffffffffffffffffffffffffffffffffffffffff1681526020019081526020016000206000828254611c639190613714565b925050819055505b600073ffffffffffffffffffffffffffffffffffffffff168373ffffffffffffffffffffffffffffffffffffffff1614611cf65780600360008573ffffffffffffffffffffffffffffffffffffffff1673ffffffffffffffffffffffffffffffffffffffff1681526020019081526020016000206000828254611cee919061321f565b925050819055505b5b50505050565b50505050565b611d0d8383612038565b611d1a6000848484611eb1565b611d59576040517f08c379a0000000000000000000000000000000000000000000000000000000008152600401611d50906136f4565b60405180910390fd5b505050565b600080600090507a184f03e93ff9f4daa797ed6e38ed64bf6a1f0100000000000000008310611dbc577a184f03e93ff9f4daa797ed6e38ed64bf6a1f0100000000000000008381611db257611db1612e3f565b5b0492506040810190505b6d04ee2d6d415b85acef81000000008310611df9576d04ee2d6d415b85acef81000000008381611def57611dee612e3f565b5b0492506020810190505b662386f26fc100008310611e2857662386f26fc100008381611e1e57611e1d612e3f565b5b0492506010810190505b6305f5e1008310611e51576305f5e1008381611e4757611e46612e3f565b5b0492506008810190505b6127108310611e76576127108381611e6c57611e6b612e3f565b5b0492506004810190505b60648310611e995760648381611e8f57611e8e612e3f565b5b0492506002810190505b600a8310611ea8576001810190505b80915050919050565b6000611ed28473ffffffffffffffffffffffffffffffffffffffff16612255565b1561202b578373ffffffffffffffffffffffffffffffffffffffff1663150b7a02611efb6110b4565b8786866040518563ffffffff1660e01b8152600401611f1d949392919061379d565b6020604051808303816000875af1925050508015611f5957506040513d601f19601f82011682018060405250810190611f5691906137fe565b60015b611fdb573d8060008114611f89576040519150601f19603f3d011682016040523d82523d6000602084013e611f8e565b606091505b506000815103611fd3576040517f08c379a0000000000000000000000000000000000000000000000000000000008152600401611fca906136f4565b60405180910390fd5b805181602001fd5b63150b7a0260e01b7bffffffffffffffffffffffffffffffffffffffffffffffffffffffff1916817bffffffffffffffffffffffffffffffffffffffffffffffffffffffff191614915050612030565b600190505b949350505050565b600073ffffffffffffffffffffffffffffffffffffffff168273ffffffffffffffffffffffffffffffffffffffff16036120a7576040517f08c379a000000000000000000000000000000000000000000000000000000000815260040161209e90613877565b60405180910390fd5b6120b081611b96565b156120f0576040517f08c379a00000000000000000000000000000000000000000000000000000000081526004016120e7906138e3565b60405180910390fd5b6120fe600083836001611bd7565b61210781611b96565b15612147576040517f08c379a000000000000000000000000000000000000000000000000000000000815260040161213e906138e3565b60405180910390fd5b6001600360008473ffffffffffffffffffffffffffffffffffffffff1673ffffffffffffffffffffffffffffffffffffffff16815260200190815260200160002060008282540192505081905550816002600083815260200190815260200160002060006101000a81548173ffffffffffffffffffffffffffffffffffffffff021916908373ffffffffffffffffffffffffffffffffffffffff160217905550808273ffffffffffffffffffffffffffffffffffffffff16600073ffffffffffffffffffffffffffffffffffffffff167fddf252ad1be2c89b69c2b068fc378daa952ba7f163c4a11628f55a4df523b3ef60405160405180910390a4612251600083836001611cfd565b5050565b6000808273ffffffffffffffffffffffffffffffffffffffff163b119050919050565b6000604051905090565b600080fd5b600080fd5b60007fffffffff0000000000000000000000000000000000000000000000000000000082169050919050565b6122c18161228c565b81146122cc57600080fd5b50565b6000813590506122de816122b8565b92915050565b6000602082840312156122fa576122f9612282565b5b6000612308848285016122cf565b91505092915050565b60008115159050919050565b61232681612311565b82525050565b6000602082019050612341600083018461231d565b92915050565b600081519050919050565b600082825260208201905092915050565b60005b83811015612381578082015181840152602081019050612366565b60008484015250505050565b6000601f19601f8301169050919050565b60006123a982612347565b6123b38185612352565b93506123c3818560208601612363565b6123cc8161238d565b840191505092915050565b600060208201905081810360008301526123f1818461239e565b905092915050565b6000819050919050565b61240c816123f9565b811461241757600080fd5b50565b60008135905061242981612403565b92915050565b60006020828403121561244557612444612282565b5b60006124538482850161241a565b91505092915050565b600073ffffffffffffffffffffffffffffffffffffffff82169050919050565b60006124878261245c565b9050919050565b6124978161247c565b82525050565b60006020820190506124b2600083018461248e565b92915050565b6124c18161247c565b81146124cc57600080fd5b50565b6000813590506124de816124b8565b92915050565b600080604083850312156124fb576124fa612282565b5b6000612509858286016124cf565b925050602061251a8582860161241a565b9150509250929050565b60008060006060848603121561253d5761253c612282565b5b600061254b868287016124cf565b935050602061255c868287016124cf565b925050604061256d8682870161241a565b9150509250925092565b60006020828403121561258d5761258c612282565b5b600061259b848285016124cf565b91505092915050565b6125ad816123f9565b82525050565b60006020820190506125c860008301846125a4565b92915050565b6125d781612311565b81146125e257600080fd5b50565b6000813590506125f4816125ce565b92915050565b6000806040838503121561261157612610612282565b5b600061261f858286016124cf565b9250506020612630858286016125e5565b9150509250929050565b600080fd5b600080fd5b7f4e487b7100000000000000000000000000000000000000000000000000000000600052604160045260246000fd5b61267c8261238d565b810181811067ffffffffffffffff8211171561269b5761269a612644565b5b80604052505050565b60006126ae612278565b90506126ba8282612673565b919050565b600067ffffffffffffffff8211156126da576126d9612644565b5b6126e38261238d565b9050602081019050919050565b82818337600083830152505050565b600061271261270d846126bf565b6126a4565b90508281526020810184848401111561272e5761272d61263f565b5b6127398482856126f0565b509392505050565b600082601f8301126127565761275561263a565b5b81356127668482602086016126ff565b91505092915050565b6000806000806080858703121561278957612788612282565b5b6000612797878288016124cf565b94505060206127a8878288016124cf565b93505060406127b98782880161241a565b925050606085013567ffffffffffffffff8111156127da576127d9612287565b5b6127e687828801612741565b91505092959194509250565b6000806040838503121561280957612808612282565b5b6000612817858286016124cf565b9250506020612828858286016124cf565b9150509250929050565b7f4e487b7100000000000000000000000000000000000000000000000000000000600052602260045260246000fd5b6000600282049050600182168061287957607f821691505b60208210810361288c5761288b612832565b5b50919050565b7f4552433732313a20617070726f76616c20746f2063757272656e74206f776e6560008201527f7200000000000000000000000000000000000000000000000000000000000000602082015250565b60006128ee602183612352565b91506128f982612892565b604082019050919050565b6000602082019050818103600083015261291d816128e1565b9050919050565b7f4552433732313a20617070726f76652063616c6c6572206973206e6f7420746f60008201527f6b656e206f776e6572206f7220617070726f76656420666f7220616c6c000000602082015250565b6000612980603d83612352565b915061298b82612924565b604082019050919050565b600060208201905081810360008301526129af81612973565b9050919050565b7f4552433732313a2063616c6c6572206973206e6f7420746f6b656e206f776e6560008201527f72206f7220617070726f76656400000000000000000000000000000000000000602082015250565b6000612a12602d83612352565b9150612a1d826129b6565b604082019050919050565b60006020820190508181036000830152612a4181612a05565b9050919050565b600081905092915050565b6000612a5e82612347565b612a688185612a48565b9350612a78818560208601612363565b80840191505092915050565b6000612a908286612a53565b9150612a9c8285612a53565b9150612aa88284612a53565b9150819050949350505050565b60008190508160005260206000209050919050565b60008154612ad781612861565b612ae18186612a48565b94506001821660008114612afc5760018114612b1157612b44565b60ff1983168652811515820286019350612b44565b612b1a85612ab5565b60005b83811015612b3c57815481890152600182019150602081019050612b1d565b838801955050505b50505092915050565b7f3c2f746578743e3c2f7376673e00000000000000000000000000000000000000600082015250565b6000612b83600d83612a48565b9150612b8e82612b4d565b600d82019050919050565b6000612ba58285612aca565b9150612bb18284612a53565b9150612bbc82612b76565b91508190509392505050565b7f7b226e616d65223a202200000000000000000000000000000000000000000000600082015250565b6000612bfe600a83612a48565b9150612c0982612bc8565b600a82019050919050565b7f222c20226465736372697074696f6e223a20224120686967686c79206163636c60008201527f61696d656420636f6c6c656374696f6e206f6620737175617265732e222c202260208201527f696d616765223a2022646174613a696d6167652f7376672b786d6c3b6261736560408201527f36342c0000000000000000000000000000000000000000000000000000000000606082015250565b6000612cbc606383612a48565b9150612cc782612c14565b606382019050919050565b7f227d000000000000000000000000000000000000000000000000000000000000600082015250565b6000612d08600283612a48565b9150612d1382612cd2565b600282019050919050565b6000612d2982612bf1565b9150612d358285612a53565b9150612d4082612caf565b9150612d4c8284612a53565b9150612d5782612cfb565b91508190509392505050565b7f646174613a6170706c69636174696f6e2f6a736f6e3b6261736536342c000000600082015250565b6000612d99601d83612a48565b9150612da482612d63565b601d82019050919050565b6000612dba82612d8c565b9150612dc68284612a53565b915081905092915050565b7f46495253545f574f524400000000000000000000000000000000000000000000600082015250565b6000612e07600a83612a48565b9150612e1282612dd1565b600a82019050919050565b6000612e2882612dfa565b9150612e348284612a53565b915081905092915050565b7f4e487b7100000000000000000000000000000000000000000000000000000000600052601260045260246000fd5b6000612e79826123f9565b9150612e84836123f9565b925082612e9457612e93612e3f565b5b828206905092915050565b7f4e487b7100000000000000000000000000000000000000000000000000000000600052603260045260246000fd5b7f4552433732313a20696e76616c696420746f6b656e2049440000000000000000600082015250565b6000612f04601883612352565b9150612f0f82612ece565b602082019050919050565b60006020820190508181036000830152612f3381612ef7565b9050919050565b7f4552433732313a2061646472657373207a65726f206973206e6f74206120766160008201527f6c6964206f776e65720000000000000000000000000000000000000000000000602082015250565b6000612f96602983612352565b9150612fa182612f3a565b604082019050919050565b60006020820190508181036000830152612fc581612f89565b9050919050565b7f5345434f4e445f574f5244000000000000000000000000000000000000000000600082015250565b6000613002600b83612a48565b915061300d82612fcc565b600b82019050919050565b600061302382612ff5565b915061302f8284612a53565b915081905092915050565b7f54484952445f574f524400000000000000000000000000000000000000000000600082015250565b6000613070600a83612a48565b915061307b8261303a565b600a82019050919050565b600061309182613063565b915061309d8284612a53565b915081905092915050565b60006130b48285612a53565b91506130c08284612a53565b91508190509392505050565b7f4552433732313a207472616e736665722066726f6d20696e636f72726563742060008201527f6f776e6572000000000000000000000000000000000000000000000000000000602082015250565b6000613128602583612352565b9150613133826130cc565b604082019050919050565b600060208201905081810360008301526131578161311b565b9050919050565b7f4552433732313a207472616e7366657220746f20746865207a65726f2061646460008201527f7265737300000000000000000000000000000000000000000000000000000000602082015250565b60006131ba602483612352565b91506131c58261315e565b604082019050919050565b600060208201905081810360008301526131e9816131ad565b9050919050565b7f4e487b7100000000000000000000000000000000000000000000000000000000600052601160045260246000fd5b600061322a826123f9565b9150613235836123f9565b925082820190508082111561324d5761324c6131f0565b5b92915050565b600061325e826123f9565b9150613269836123f9565b92508261327957613278612e3f565b5b828204905092915050565b600061328f826123f9565b915061329a836123f9565b92508282026132a8816123f9565b915082820484148315176132bf576132be6131f0565b5b5092915050565b7f45524337323155524953746f726167653a2055524920736574206f66206e6f6e60008201527f6578697374656e7420746f6b656e000000000000000000000000000000000000602082015250565b6000613322602e83612352565b915061332d826132c6565b604082019050919050565b6000602082019050818103600083015261335181613315565b9050919050565b60006020601f8301049050919050565b600082821b905092915050565b6000600883026133a57fffffffffffffffffffffffffffffffffffffffffffffffffffffffffffffffff82613368565b6133af8683613368565b95508019841693508086168417925050509392505050565b6000819050919050565b60006133ec6133e76133e2846123f9565b6133c7565b6123f9565b9050919050565b6000819050919050565b613406836133d1565b61341a613412826133f3565b848454613375565b825550505050565b600090565b61342f613422565b61343a8184846133fd565b505050565b5b8181101561345e57613453600082613427565b600181019050613440565b5050565b601f8211156134a35761347481612ab5565b61347d84613358565b8101602085101561348c578190505b6134a061349885613358565b83018261343f565b50505b505050565b600082821c905092915050565b60006134c6600019846008026134a8565b1980831691505092915050565b60006134df83836134b5565b9150826002028217905092915050565b6134f882612347565b67ffffffffffffffff81111561351157613510612644565b5b61351b8254612861565b613526828285613462565b600060209050601f8311600181146135595760008415613547578287015190505b61355185826134d3565b8655506135b9565b601f19841661356786612ab5565b60005b8281101561358f5784890151825560018201915060208501945060208101905061356a565b868310156135ac57848901516135a8601f8916826134b5565b8355505b6001600288020188555050505b505050505050565b600060608201905081810360008301526135db818661239e565b90506135ea60208301856125a4565b6135f7604083018461248e565b949350505050565b600061360b8284612a53565b915081905092915050565b7f4552433732313a20617070726f766520746f2063616c6c657200000000000000600082015250565b600061364c601983612352565b915061365782613616565b602082019050919050565b6000602082019050818103600083015261367b8161363f565b9050919050565b7f4552433732313a207472616e7366657220746f206e6f6e20455243373231526560008201527f63656976657220696d706c656d656e7465720000000000000000000000000000602082015250565b60006136de603283612352565b91506136e982613682565b604082019050919050565b6000602082019050818103600083015261370d816136d1565b9050919050565b600061371f826123f9565b915061372a836123f9565b9250828203905081811115613742576137416131f0565b5b92915050565b600081519050919050565b600082825260208201905092915050565b600061376f82613748565b6137798185613753565b9350613789818560208601612363565b6137928161238d565b840191505092915050565b60006080820190506137b2600083018761248e565b6137bf602083018661248e565b6137cc60408301856125a4565b81810360608301526137de8184613764565b905095945050505050565b6000815190506137f8816122b8565b92915050565b60006020828403121561381457613813612282565b5b6000613822848285016137e9565b91505092915050565b7f4552433732313a206d696e7420746f20746865207a65726f2061646472657373600082015250565b6000613861602083612352565b915061386c8261382b565b602082019050919050565b6000602082019050818103600083015261389081613854565b9050919050565b7f4552433732313a20746f6b656e20616c7265616479206d696e74656400000000600082015250565b60006138cd601c83612352565b91506138d882613897565b602082019050919050565b600060208201905081810360008301526138fc816138c0565b905091905056fe416e204e465420772f20494420257320686173206265656e206d696e74656420746f2025734142434445464748494a4b4c4d4e4f505152535455565758595a6162636465666768696a6b6c6d6e6f707172737475767778797a303132333435363738392b2fa26469706673582212203a818359e4c629d7331361ddf7e113e0ad31050b0ef23b26b2c472528d8b3e2b64736f6c634300081100333c73766720786d6c6e733d27687474703a2f2f7777772e77332e6f72672f323030302f73766727207072657365727665417370656374526174696f3d27784d696e594d696e206d656574272076696577426f783d273020302033353020333530273e3c7374796c653e2e62617365207b2066696c6c3a2077686974653b20666f6e742d66616d696c793a2073657269663b20666f6e742d73697a653a20323470783b207d3c2f7374796c653e3c726563742077696474683d273130302527206865696768743d2731303025272066696c6c3d27626c61636b27202f3e3c7465787420783d273530252720793d273530252720636c6173733d27626173652720646f6d696e616e742d626173656c696e653d276d6964646c652720746578742d616e63686f723d276d6964646c65273e",
  "linkReferences": {},
  "deployedLinkReferences": {}
}